{
  "_format": "hh-sol-artifact-1",
  "contractName": "TRabbit",
  "sourceName": "contracts/nftTest.sol",
  "abi": [
    {
      "inputs": [
        {
          "internalType": "string",
          "name": "_name",
          "type": "string"
        },
        {
          "internalType": "string",
          "name": "_symbol",
          "type": "string"
        },
        {
          "internalType": "uint256",
          "name": "_limit",
          "type": "uint256"
        },
        {
          "internalType": "uint256",
          "name": "_price",
          "type": "uint256"
        },
        {
          "internalType": "uint256",
          "name": "_interval",
          "type": "uint256"
        },
        {
          "internalType": "uint256",
          "name": "_revelingBlock",
          "type": "uint256"
        },
        {
          "internalType": "string",
          "name": "_notReveledNFTURI",
          "type": "string"
        }
      ],
      "stateMutability": "nonpayable",
      "type": "constructor"
    },
    {
      "inputs": [],
      "name": "FailedToWithdraw",
      "type": "error"
    },
    {
      "inputs": [
        {
          "internalType": "uint256",
          "name": "paidPrice",
          "type": "uint256"
        },
        {
          "internalType": "uint256",
          "name": "price",
          "type": "uint256"
        }
      ],
      "name": "InsufficientValue",
      "type": "error"
    },
    {
      "inputs": [],
      "name": "OutOfNfts",
      "type": "error"
    },
    {
      "inputs": [
        {
          "internalType": "uint256",
          "name": "tillBlock",
          "type": "uint256"
        },
        {
          "internalType": "uint256",
          "name": "currentBlock",
          "type": "uint256"
        }
      ],
      "name": "WaitForACoupleOfBlocks",
      "type": "error"
    },
    {
      "anonymous": false,
      "inputs": [
        {
          "indexed": true,
          "internalType": "address",
          "name": "owner",
          "type": "address"
        },
        {
          "indexed": true,
          "internalType": "address",
          "name": "approved",
          "type": "address"
        },
        {
          "indexed": true,
          "internalType": "uint256",
          "name": "tokenId",
          "type": "uint256"
        }
      ],
      "name": "Approval",
      "type": "event"
    },
    {
      "anonymous": false,
      "inputs": [
        {
          "indexed": true,
          "internalType": "address",
          "name": "owner",
          "type": "address"
        },
        {
          "indexed": true,
          "internalType": "address",
          "name": "operator",
          "type": "address"
        },
        {
          "indexed": false,
          "internalType": "bool",
          "name": "approved",
          "type": "bool"
        }
      ],
      "name": "ApprovalForAll",
      "type": "event"
    },
    {
      "anonymous": false,
      "inputs": [
        {
          "indexed": true,
          "internalType": "address",
          "name": "previousOwner",
          "type": "address"
        },
        {
          "indexed": true,
          "internalType": "address",
          "name": "newOwner",
          "type": "address"
        }
      ],
      "name": "OwnershipTransferred",
      "type": "event"
    },
    {
      "anonymous": false,
      "inputs": [
        {
          "indexed": true,
          "internalType": "address",
          "name": "from",
          "type": "address"
        },
        {
          "indexed": true,
          "internalType": "address",
          "name": "to",
          "type": "address"
        },
        {
          "indexed": true,
          "internalType": "uint256",
          "name": "tokenId",
          "type": "uint256"
        }
      ],
      "name": "Transfer",
      "type": "event"
    },
    {
      "inputs": [
        {
          "internalType": "uint256",
          "name": "",
          "type": "uint256"
        }
      ],
      "name": "BlockDesc",
      "outputs": [
        {
          "internalType": "string",
          "name": "",
          "type": "string"
        }
      ],
      "stateMutability": "view",
      "type": "function"
    },
    {
      "inputs": [
        {
          "internalType": "uint256",
          "name": "",
          "type": "uint256"
        }
      ],
      "name": "BlockNumber",
      "outputs": [
        {
          "internalType": "uint256",
          "name": "",
          "type": "uint256"
        }
      ],
      "stateMutability": "view",
      "type": "function"
    },
    {
      "inputs": [
        {
          "internalType": "address",
          "name": "",
          "type": "address"
        }
      ],
      "name": "NumberTracker",
      "outputs": [
        {
          "internalType": "uint256",
          "name": "",
          "type": "uint256"
        }
      ],
      "stateMutability": "view",
      "type": "function"
    },
    {
      "inputs": [
        {
          "internalType": "address",
          "name": "to",
          "type": "address"
        },
        {
          "internalType": "uint256",
          "name": "tokenId",
          "type": "uint256"
        }
      ],
      "name": "approve",
      "outputs": [],
      "stateMutability": "nonpayable",
      "type": "function"
    },
    {
      "inputs": [
        {
          "internalType": "address",
          "name": "owner",
          "type": "address"
        }
      ],
      "name": "balanceOf",
      "outputs": [
        {
          "internalType": "uint256",
          "name": "",
          "type": "uint256"
        }
      ],
      "stateMutability": "view",
      "type": "function"
    },
    {
      "inputs": [
        {
          "internalType": "uint256",
          "name": "tokenId",
          "type": "uint256"
        }
      ],
      "name": "getApproved",
      "outputs": [
        {
          "internalType": "address",
          "name": "",
          "type": "address"
        }
      ],
      "stateMutability": "view",
      "type": "function"
    },
    {
      "inputs": [
        {
          "internalType": "uint256",
          "name": "tokenId",
          "type": "uint256"
        }
      ],
      "name": "getBlockDesc",
      "outputs": [
        {
          "internalType": "string",
          "name": "",
          "type": "string"
        }
      ],
      "stateMutability": "view",
      "type": "function"
    },
    {
      "inputs": [
        {
          "internalType": "uint256",
          "name": "tokenId",
          "type": "uint256"
        }
      ],
      "name": "getIsBlock",
      "outputs": [
        {
          "internalType": "uint256",
          "name": "",
          "type": "uint256"
        }
      ],
      "stateMutability": "view",
      "type": "function"
    },
    {
      "inputs": [],
      "name": "interval",
      "outputs": [
        {
          "internalType": "uint256",
          "name": "",
          "type": "uint256"
        }
      ],
      "stateMutability": "view",
      "type": "function"
    },
    {
      "inputs": [
        {
          "internalType": "address",
          "name": "owner",
          "type": "address"
        },
        {
          "internalType": "address",
          "name": "operator",
          "type": "address"
        }
      ],
      "name": "isApprovedForAll",
      "outputs": [
        {
          "internalType": "bool",
          "name": "",
          "type": "bool"
        }
      ],
      "stateMutability": "view",
      "type": "function"
    },
    {
      "inputs": [
        {
          "internalType": "uint256",
          "name": "",
          "type": "uint256"
        }
      ],
      "name": "isBlock",
      "outputs": [
        {
          "internalType": "uint256",
          "name": "",
          "type": "uint256"
        }
      ],
      "stateMutability": "view",
      "type": "function"
    },
    {
      "inputs": [],
      "name": "latestId",
      "outputs": [
        {
          "internalType": "uint256",
          "name": "",
          "type": "uint256"
        }
      ],
      "stateMutability": "view",
      "type": "function"
    },
    {
      "inputs": [],
      "name": "limit",
      "outputs": [
        {
          "internalType": "uint256",
          "name": "",
          "type": "uint256"
        }
      ],
      "stateMutability": "view",
      "type": "function"
    },
    {
      "inputs": [],
      "name": "mint",
      "outputs": [],
      "stateMutability": "payable",
      "type": "function"
    },
    {
      "inputs": [],
      "name": "name",
      "outputs": [
        {
          "internalType": "string",
          "name": "",
          "type": "string"
        }
      ],
      "stateMutability": "view",
      "type": "function"
    },
    {
      "inputs": [],
      "name": "notReveledNFTURI",
      "outputs": [
        {
          "internalType": "string",
          "name": "",
          "type": "string"
        }
      ],
      "stateMutability": "view",
      "type": "function"
    },
    {
      "inputs": [],
      "name": "owner",
      "outputs": [
        {
          "internalType": "address",
          "name": "",
          "type": "address"
        }
      ],
      "stateMutability": "view",
      "type": "function"
    },
    {
      "inputs": [
        {
          "internalType": "uint256",
          "name": "tokenId",
          "type": "uint256"
        }
      ],
      "name": "ownerOf",
      "outputs": [
        {
          "internalType": "address",
          "name": "",
          "type": "address"
        }
      ],
      "stateMutability": "view",
      "type": "function"
    },
    {
      "inputs": [],
      "name": "price",
      "outputs": [
        {
          "internalType": "uint256",
          "name": "",
          "type": "uint256"
        }
      ],
      "stateMutability": "view",
      "type": "function"
    },
    {
      "inputs": [],
      "name": "renounceOwnership",
      "outputs": [],
      "stateMutability": "nonpayable",
      "type": "function"
    },
    {
      "inputs": [],
      "name": "revelingBlock",
      "outputs": [
        {
          "internalType": "uint256",
          "name": "",
          "type": "uint256"
        }
      ],
      "stateMutability": "view",
      "type": "function"
    },
    {
      "inputs": [
        {
          "internalType": "address",
          "name": "from",
          "type": "address"
        },
        {
          "internalType": "address",
          "name": "to",
          "type": "address"
        },
        {
          "internalType": "uint256",
          "name": "tokenId",
          "type": "uint256"
        }
      ],
      "name": "safeTransferFrom",
      "outputs": [],
      "stateMutability": "nonpayable",
      "type": "function"
    },
    {
      "inputs": [
        {
          "internalType": "address",
          "name": "from",
          "type": "address"
        },
        {
          "internalType": "address",
          "name": "to",
          "type": "address"
        },
        {
          "internalType": "uint256",
          "name": "tokenId",
          "type": "uint256"
        },
        {
          "internalType": "bytes",
          "name": "data",
          "type": "bytes"
        }
      ],
      "name": "safeTransferFrom",
      "outputs": [],
      "stateMutability": "nonpayable",
      "type": "function"
    },
    {
      "inputs": [
        {
          "internalType": "address",
          "name": "operator",
          "type": "address"
        },
        {
          "internalType": "bool",
          "name": "approved",
          "type": "bool"
        }
      ],
      "name": "setApprovalForAll",
      "outputs": [],
      "stateMutability": "nonpayable",
      "type": "function"
    },
    {
      "inputs": [
        {
          "internalType": "uint256",
          "name": "tokenId",
          "type": "uint256"
        },
        {
          "internalType": "string",
          "name": "desc",
          "type": "string"
        }
      ],
      "name": "setBlockDesc",
      "outputs": [],
      "stateMutability": "nonpayable",
      "type": "function"
    },
    {
      "inputs": [
        {
          "internalType": "uint256",
          "name": "tokenId",
          "type": "uint256"
        }
      ],
      "name": "setIsBlock",
      "outputs": [],
      "stateMutability": "nonpayable",
      "type": "function"
    },
    {
      "inputs": [
        {
          "internalType": "uint256",
          "name": "tokenId",
          "type": "uint256"
        }
      ],
      "name": "setIsBlockBeZero",
      "outputs": [],
      "stateMutability": "nonpayable",
      "type": "function"
    },
    {
      "inputs": [
        {
          "internalType": "bytes4",
          "name": "interfaceId",
          "type": "bytes4"
        }
      ],
      "name": "supportsInterface",
      "outputs": [
        {
          "internalType": "bool",
          "name": "",
          "type": "bool"
        }
      ],
      "stateMutability": "view",
      "type": "function"
    },
    {
      "inputs": [],
      "name": "symbol",
      "outputs": [
        {
          "internalType": "string",
          "name": "",
          "type": "string"
        }
      ],
      "stateMutability": "view",
      "type": "function"
    },
    {
      "inputs": [
        {
          "internalType": "uint256",
          "name": "index",
          "type": "uint256"
        }
      ],
      "name": "tokenByIndex",
      "outputs": [
        {
          "internalType": "uint256",
          "name": "",
          "type": "uint256"
        }
      ],
      "stateMutability": "view",
      "type": "function"
    },
    {
      "inputs": [
        {
          "internalType": "address",
          "name": "owner",
          "type": "address"
        },
        {
          "internalType": "uint256",
          "name": "index",
          "type": "uint256"
        }
      ],
      "name": "tokenOfOwnerByIndex",
      "outputs": [
        {
          "internalType": "uint256",
          "name": "",
          "type": "uint256"
        }
      ],
      "stateMutability": "view",
      "type": "function"
    },
    {
      "inputs": [
        {
          "internalType": "uint256",
          "name": "tokenId",
          "type": "uint256"
        }
      ],
      "name": "tokenURI",
      "outputs": [
        {
          "internalType": "string",
          "name": "",
          "type": "string"
        }
      ],
      "stateMutability": "view",
      "type": "function"
    },
    {
      "inputs": [],
      "name": "totalSupply",
      "outputs": [
        {
          "internalType": "uint256",
          "name": "",
          "type": "uint256"
        }
      ],
      "stateMutability": "view",
      "type": "function"
    },
    {
      "inputs": [
        {
          "internalType": "address",
          "name": "from",
          "type": "address"
        },
        {
          "internalType": "address",
          "name": "to",
          "type": "address"
        },
        {
          "internalType": "uint256",
          "name": "tokenId",
          "type": "uint256"
        }
      ],
      "name": "transferFrom",
      "outputs": [],
      "stateMutability": "nonpayable",
      "type": "function"
    },
    {
      "inputs": [
        {
          "internalType": "address",
          "name": "newOwner",
          "type": "address"
        }
      ],
      "name": "transferOwnership",
      "outputs": [],
      "stateMutability": "nonpayable",
      "type": "function"
    },
    {
      "inputs": [
        {
          "internalType": "address",
          "name": "_to",
          "type": "address"
        },
        {
          "internalType": "uint256",
          "name": "_number",
          "type": "uint256"
        }
      ],
      "name": "u_airdrop",
      "outputs": [],
      "stateMutability": "nonpayable",
      "type": "function"
    },
    {
      "inputs": [
        {
          "internalType": "address[]",
          "name": "_to",
          "type": "address[]"
        }
      ],
      "name": "u_airdrop2",
      "outputs": [],
      "stateMutability": "nonpayable",
      "type": "function"
    },
    {
      "inputs": [],
      "name": "u_currentBalance",
      "outputs": [
        {
          "internalType": "uint256",
          "name": "",
          "type": "uint256"
        }
      ],
      "stateMutability": "view",
      "type": "function"
    },
    {
      "inputs": [
        {
          "internalType": "address",
          "name": "_to",
          "type": "address"
        },
        {
          "internalType": "uint256",
          "name": "_number",
          "type": "uint256"
        }
      ],
      "name": "u_mint",
      "outputs": [],
      "stateMutability": "nonpayable",
      "type": "function"
    },
    {
      "inputs": [
        {
          "internalType": "uint256",
          "name": "_interval",
          "type": "uint256"
        }
      ],
      "name": "u_setInterval",
      "outputs": [],
      "stateMutability": "nonpayable",
      "type": "function"
    },
    {
      "inputs": [
        {
          "internalType": "uint256",
          "name": "_price",
          "type": "uint256"
        }
      ],
      "name": "u_setPrice",
      "outputs": [],
      "stateMutability": "nonpayable",
      "type": "function"
    },
    {
      "inputs": [
        {
          "internalType": "uint256",
          "name": "_revelingBlock",
          "type": "uint256"
        }
      ],
      "name": "u_setRevelingBlock",
      "outputs": [],
      "stateMutability": "nonpayable",
      "type": "function"
    },
    {
      "inputs": [],
      "name": "u_whenToRevelNFTs",
      "outputs": [
        {
          "internalType": "uint256",
          "name": "",
          "type": "uint256"
        }
      ],
      "stateMutability": "view",
      "type": "function"
    },
    {
      "inputs": [],
      "name": "u_withdraw",
      "outputs": [],
      "stateMutability": "nonpayable",
      "type": "function"
    },
    {
      "stateMutability": "payable",
      "type": "receive"
    }
  ],
  "bytecode": "0x60806040523480156200001157600080fd5b5060405162004b4d38038062004b4d833981810160405281019062000037919062000432565b8686816000908051906020019062000051929190620001aa565b5080600190805190602001906200006a929190620001aa565b5050506200008d62000081620000dc60201b60201c565b620000e460201b60201c565b84600b8190555083600d8190555082600e819055504382620000b0919062000571565b600f819055508060109080519060200190620000ce929190620001aa565b505050505050505062000633565b600033905090565b6000600a60009054906101000a900473ffffffffffffffffffffffffffffffffffffffff16905081600a60006101000a81548173ffffffffffffffffffffffffffffffffffffffff021916908373ffffffffffffffffffffffffffffffffffffffff1602179055508173ffffffffffffffffffffffffffffffffffffffff168173ffffffffffffffffffffffffffffffffffffffff167f8be0079c531659141344cd1fd0a4f28419497f9722a3daafe3b4186f6b6457e060405160405180910390a35050565b828054620001b890620005fd565b90600052602060002090601f016020900481019282620001dc576000855562000228565b82601f10620001f757805160ff191683800117855562000228565b8280016001018555821562000228579182015b82811115620002275782518255916020019190600101906200020a565b5b5090506200023791906200023b565b5090565b5b80821115620002565760008160009055506001016200023c565b5090565b6000604051905090565b600080fd5b600080fd5b600080fd5b600080fd5b6000601f19601f8301169050919050565b7f4e487b7100000000000000000000000000000000000000000000000000000000600052604160045260246000fd5b620002c38262000278565b810181811067ffffffffffffffff82111715620002e557620002e462000289565b5b80604052505050565b6000620002fa6200025a565b9050620003088282620002b8565b919050565b600067ffffffffffffffff8211156200032b576200032a62000289565b5b620003368262000278565b9050602081019050919050565b60005b838110156200036357808201518184015260208101905062000346565b8381111562000373576000848401525b50505050565b6000620003906200038a846200030d565b620002ee565b905082815260208101848484011115620003af57620003ae62000273565b5b620003bc84828562000343565b509392505050565b600082601f830112620003dc57620003db6200026e565b5b8151620003ee84826020860162000379565b91505092915050565b6000819050919050565b6200040c81620003f7565b81146200041857600080fd5b50565b6000815190506200042c8162000401565b92915050565b600080600080600080600060e0888a03121562000454576200045362000264565b5b600088015167ffffffffffffffff81111562000475576200047462000269565b5b620004838a828b01620003c4565b975050602088015167ffffffffffffffff811115620004a757620004a662000269565b5b620004b58a828b01620003c4565b9650506040620004c88a828b016200041b565b9550506060620004db8a828b016200041b565b9450506080620004ee8a828b016200041b565b93505060a0620005018a828b016200041b565b92505060c088015167ffffffffffffffff81111562000525576200052462000269565b5b620005338a828b01620003c4565b91505092959891949750929550565b7f4e487b7100000000000000000000000000000000000000000000000000000000600052601160045260246000fd5b60006200057e82620003f7565b91506200058b83620003f7565b9250827fffffffffffffffffffffffffffffffffffffffffffffffffffffffffffffffff03821115620005c357620005c262000542565b5b828201905092915050565b7f4e487b7100000000000000000000000000000000000000000000000000000000600052602260045260246000fd5b600060028204905060018216806200061657607f821691505b602082108114156200062d576200062c620005ce565b5b50919050565b61450a80620006436000396000f3fe60806040526004361061026b5760003560e01c806395d89b4111610144578063c1efcf18116100b6578063e028dc9f1161007a578063e028dc9f1461095a578063e985e9c514610983578063ea09a26c146109c0578063f2fde38b146109fd578063f71e35ca14610a26578063f7ef0fa814610a4f5761027a565b8063c1efcf181461084f578063c28a15891461087a578063c6709011146108b7578063c79ac796146108f4578063c87b56dd1461091d5761027a565b8063a22cb46511610108578063a22cb4651461072f578063a458197014610758578063a4d66daf14610795578063b356fc1a146107c0578063b88d4fde146107e9578063c04eeb4c146108125761027a565b806395d89b411461065a5780639e024b7a14610685578063a035b1fe146106ae578063a0699502146106d9578063a21301a5146107045761027a565b806342842e0e116101dd5780636af047a4116101a15780636af047a41461057057806370a0823114610587578063715018a6146105c45780638bff07d8146105db5780638da5cb5b14610604578063947a36fb1461062f5761027a565b806342842e0e146104795780634bfbbe0b146104a25780634f6ccce7146104cd5780636352211e1461050a57806368752f9a146105475761027a565b80631249c58b1161022f5780631249c58b1461037657806318160ddd146103805780631d5ae7c8146103ab57806323b872dd146103d657806324409c30146103ff5780632f745c591461043c5761027a565b806301ffc9a71461027f57806306fdde03146102bc578063081812fc146102e7578063095ea7b31461032457806310f362eb1461034d5761027a565b3661027a57610278610a78565b005b600080fd5b34801561028b57600080fd5b506102a660048036038101906102a19190613130565b610c96565b6040516102b39190613178565b60405180910390f35b3480156102c857600080fd5b506102d1610d10565b6040516102de919061322c565b60405180910390f35b3480156102f357600080fd5b5061030e60048036038101906103099190613284565b610da2565b60405161031b91906132f2565b60405180910390f35b34801561033057600080fd5b5061034b60048036038101906103469190613339565b610de8565b005b34801561035957600080fd5b50610374600480360381019061036f9190613284565b610f00565b005b61037e610a78565b005b34801561038c57600080fd5b50610395610f1d565b6040516103a29190613388565b60405180910390f35b3480156103b757600080fd5b506103c0610f2a565b6040516103cd919061322c565b60405180910390f35b3480156103e257600080fd5b506103fd60048036038101906103f891906133a3565b610fb8565b005b34801561040b57600080fd5b50610426600480360381019061042191906133f6565b611018565b6040516104339190613388565b60405180910390f35b34801561044857600080fd5b50610463600480360381019061045e9190613339565b611030565b6040516104709190613388565b60405180910390f35b34801561048557600080fd5b506104a0600480360381019061049b91906133a3565b6110d5565b005b3480156104ae57600080fd5b506104b76110f5565b6040516104c49190613388565b60405180910390f35b3480156104d957600080fd5b506104f460048036038101906104ef9190613284565b6110fb565b6040516105019190613388565b60405180910390f35b34801561051657600080fd5b50610531600480360381019061052c9190613284565b61116c565b60405161053e91906132f2565b60405180910390f35b34801561055357600080fd5b5061056e60048036038101906105699190613284565b6111f3565b005b34801561057c57600080fd5b50610585611217565b005b34801561059357600080fd5b506105ae60048036038101906105a991906133f6565b6112c5565b6040516105bb9190613388565b60405180910390f35b3480156105d057600080fd5b506105d961137d565b005b3480156105e757600080fd5b5061060260048036038101906105fd9190613558565b611391565b005b34801561061057600080fd5b506106196113c5565b60405161062691906132f2565b60405180910390f35b34801561063b57600080fd5b506106446113ef565b6040516106519190613388565b60405180910390f35b34801561066657600080fd5b5061066f6113f5565b60405161067c919061322c565b60405180910390f35b34801561069157600080fd5b506106ac60048036038101906106a79190613284565b611487565b005b3480156106ba57600080fd5b506106c3611499565b6040516106d09190613388565b60405180910390f35b3480156106e557600080fd5b506106ee61149f565b6040516106fb9190613388565b60405180910390f35b34801561071057600080fd5b506107196114a5565b6040516107269190613388565b60405180910390f35b34801561073b57600080fd5b50610756600480360381019061075191906135e0565b6114ad565b005b34801561076457600080fd5b5061077f600480360381019061077a9190613284565b6114c3565b60405161078c9190613388565b60405180910390f35b3480156107a157600080fd5b506107aa6114e8565b6040516107b79190613388565b60405180910390f35b3480156107cc57600080fd5b506107e760048036038101906107e29190613339565b6114ee565b005b3480156107f557600080fd5b50610810600480360381019061080b91906136c1565b611582565b005b34801561081e57600080fd5b5061083960048036038101906108349190613284565b6115e4565b6040516108469190613388565b60405180910390f35b34801561085b57600080fd5b506108646115fc565b6040516108719190613388565b60405180910390f35b34801561088657600080fd5b506108a1600480360381019061089c9190613284565b611623565b6040516108ae9190613388565b60405180910390f35b3480156108c357600080fd5b506108de60048036038101906108d99190613284565b611647565b6040516108eb919061322c565b60405180910390f35b34801561090057600080fd5b5061091b60048036038101906109169190613339565b6116e7565b005b34801561092957600080fd5b50610944600480360381019061093f9190613284565b61177b565b604051610951919061322c565b60405180910390f35b34801561096657600080fd5b50610981600480360381019061097c91906137a4565b611876565b005b34801561098f57600080fd5b506109aa60048036038101906109a591906137f1565b61193a565b6040516109b79190613178565b60405180910390f35b3480156109cc57600080fd5b506109e760048036038101906109e29190613284565b6119ce565b6040516109f4919061322c565b60405180910390f35b348015610a0957600080fd5b50610a246004803603810190610a1f91906133f6565b611a8e565b005b348015610a3257600080fd5b50610a4d6004803603810190610a489190613284565b611b12565b005b348015610a5b57600080fd5b50610a766004803603810190610a719190613284565b611b36565b005b6000601260003373ffffffffffffffffffffffffffffffffffffffff1673ffffffffffffffffffffffffffffffffffffffff1681526020019081526020016000205414610b145743600e54601260003373ffffffffffffffffffffffffffffffffffffffff1673ffffffffffffffffffffffffffffffffffffffff16815260200190815260200160002054610b0d9190613860565b1015610b17565b60005b15610ba757600e54601260003373ffffffffffffffffffffffffffffffffffffffff1673ffffffffffffffffffffffffffffffffffffffff16815260200190815260200160002054610b699190613860565b436040517f5577bb1f000000000000000000000000000000000000000000000000000000008152600401610b9e9291906138b6565b60405180910390fd5b34600d5414610bf15734600d546040517f7040b58c000000000000000000000000000000000000000000000000000000008152600401610be89291906138b6565b60405180910390fd5b600b54600c5410610c2e576040517f25d79e5f00000000000000000000000000000000000000000000000000000000815260040160405180910390fd5b600c60008154610c3d906138df565b91905081905550610c5033600c54611b48565b43601260003373ffffffffffffffffffffffffffffffffffffffff1673ffffffffffffffffffffffffffffffffffffffff16815260200190815260200160002081905550565b60007f780e9d63000000000000000000000000000000000000000000000000000000007bffffffffffffffffffffffffffffffffffffffffffffffffffffffff1916827bffffffffffffffffffffffffffffffffffffffffffffffffffffffff19161480610d095750610d0882611b66565b5b9050919050565b606060008054610d1f90613957565b80601f0160208091040260200160405190810160405280929190818152602001828054610d4b90613957565b8015610d985780601f10610d6d57610100808354040283529160200191610d98565b820191906000526020600020905b815481529060010190602001808311610d7b57829003601f168201915b5050505050905090565b6000610dad82611c48565b6004600083815260200190815260200160002060009054906101000a900473ffffffffffffffffffffffffffffffffffffffff169050919050565b6000610df38261116c565b90508073ffffffffffffffffffffffffffffffffffffffff168373ffffffffffffffffffffffffffffffffffffffff161415610e64576040517f08c379a0000000000000000000000000000000000000000000000000000000008152600401610e5b906139fb565b60405180910390fd5b8073ffffffffffffffffffffffffffffffffffffffff16610e83611c93565b73ffffffffffffffffffffffffffffffffffffffff161480610eb25750610eb181610eac611c93565b61193a565b5b610ef1576040517f08c379a0000000000000000000000000000000000000000000000000000000008152600401610ee890613a8d565b60405180910390fd5b610efb8383611c9b565b505050565b610f08611d54565b4381610f149190613860565b600f8190555050565b6000600880549050905090565b60108054610f3790613957565b80601f0160208091040260200160405190810160405280929190818152602001828054610f6390613957565b8015610fb05780601f10610f8557610100808354040283529160200191610fb0565b820191906000526020600020905b815481529060010190602001808311610f9357829003601f168201915b505050505081565b610fc9610fc3611c93565b82611dd2565b611008576040517f08c379a0000000000000000000000000000000000000000000000000000000008152600401610fff90613b1f565b60405180910390fd5b611013838383611e67565b505050565b60126020528060005260406000206000915090505481565b600061103b836112c5565b821061107c576040517f08c379a000000000000000000000000000000000000000000000000000000000815260040161107390613bb1565b60405180910390fd5b600660008473ffffffffffffffffffffffffffffffffffffffff1673ffffffffffffffffffffffffffffffffffffffff168152602001908152602001600020600083815260200190815260200160002054905092915050565b6110f083838360405180602001604052806000815250611582565b505050565b600c5481565b6000611105610f1d565b8210611146576040517f08c379a000000000000000000000000000000000000000000000000000000000815260040161113d90613c43565b60405180910390fd5b6008828154811061115a57611159613c63565b5b90600052602060002001549050919050565b60008061117883612161565b9050600073ffffffffffffffffffffffffffffffffffffffff168173ffffffffffffffffffffffffffffffffffffffff1614156111ea576040517f08c379a00000000000000000000000000000000000000000000000000000000081526004016111e190613cde565b60405180910390fd5b80915050919050565b6111fb611d54565b6000601360008381526020019081526020016000208190555050565b61121f611d54565b60003373ffffffffffffffffffffffffffffffffffffffff164760405161124590613d2f565b60006040518083038185875af1925050503d8060008114611282576040519150601f19603f3d011682016040523d82523d6000602084013e611287565b606091505b50509050806112c2576040517f2684a07900000000000000000000000000000000000000000000000000000000815260040160405180910390fd5b50565b60008073ffffffffffffffffffffffffffffffffffffffff168273ffffffffffffffffffffffffffffffffffffffff161415611336576040517f08c379a000000000000000000000000000000000000000000000000000000000815260040161132d90613db6565b60405180910390fd5b600360008373ffffffffffffffffffffffffffffffffffffffff1673ffffffffffffffffffffffffffffffffffffffff168152602001908152602001600020549050919050565b611385611d54565b61138f600061219e565b565b611399611d54565b806014600084815260200190815260200160002090805190602001906113c0929190613021565b505050565b6000600a60009054906101000a900473ffffffffffffffffffffffffffffffffffffffff16905090565b600e5481565b60606001805461140490613957565b80601f016020809104026020016040519081016040528092919081815260200182805461143090613957565b801561147d5780601f106114525761010080835404028352916020019161147d565b820191906000526020600020905b81548152906001019060200180831161146057829003601f168201915b5050505050905090565b61148f611d54565b80600e8190555050565b600d5481565b600f5481565b600047905090565b6114bf6114b8611c93565b8383612264565b5050565b60006114cd611d54565b60136000838152602001908152602001600020549050919050565b600b5481565b6114f6611d54565b600b5481600c546115079190613860565b111561153f576040517f25d79e5f00000000000000000000000000000000000000000000000000000000815260040160405180910390fd5b60005b8181101561157d57600c60008154611559906138df565b9190508190555061156c83600c54611b48565b80611576906138df565b9050611542565b505050565b61159361158d611c93565b83611dd2565b6115d2576040517f08c379a00000000000000000000000000000000000000000000000000000000081526004016115c990613b1f565b60405180910390fd5b6115de848484846123d1565b50505050565b60136020528060005260406000206000915090505481565b600043600f54111561161b5743600f546116169190613dd6565b61161e565b60005b905090565b6011818154811061163357600080fd5b906000526020600020016000915090505481565b6014602052806000526040600020600091509050805461166690613957565b80601f016020809104026020016040519081016040528092919081815260200182805461169290613957565b80156116df5780601f106116b4576101008083540402835291602001916116df565b820191906000526020600020905b8154815290600101906020018083116116c257829003601f168201915b505050505081565b6116ef611d54565b600b5481600c546117009190613860565b1115611738576040517f25d79e5f00000000000000000000000000000000000000000000000000000000815260040160405180910390fd5b60005b8181101561177657600c60008154611752906138df565b9190508190555061176583600c54611b48565b8061176f906138df565b905061173b565b505050565b606043600f54116117e357600061179061242d565b905060008151116117b057604051806020016040528060008152506117db565b806117ba8461244d565b6040516020016117cb929190613e46565b6040516020818303038152906040525b915050611871565b601080546117f090613957565b80601f016020809104026020016040519081016040528092919081815260200182805461181c90613957565b80156118695780601f1061183e57610100808354040283529160200191611869565b820191906000526020600020905b81548152906001019060200180831161184c57829003601f168201915b505050505090505b919050565b61187e611d54565b6000828290509050600b5481600c546118979190613860565b11156118cf576040517f25d79e5f00000000000000000000000000000000000000000000000000000000815260040160405180910390fd5b60005b8181101561193457600c600081546118e9906138df565b9190508190555061192384848381811061190657611905613c63565b5b905060200201602081019061191b91906133f6565b600c54611b48565b8061192d906138df565b90506118d2565b50505050565b6000600560008473ffffffffffffffffffffffffffffffffffffffff1673ffffffffffffffffffffffffffffffffffffffff16815260200190815260200160002060008373ffffffffffffffffffffffffffffffffffffffff1673ffffffffffffffffffffffffffffffffffffffff16815260200190815260200160002060009054906101000a900460ff16905092915050565b60606119d8611d54565b60146000601360008581526020019081526020016000205481526020019081526020016000208054611a0990613957565b80601f0160208091040260200160405190810160405280929190818152602001828054611a3590613957565b8015611a825780601f10611a5757610100808354040283529160200191611a82565b820191906000526020600020905b815481529060010190602001808311611a6557829003601f168201915b50505050509050919050565b611a96611d54565b600073ffffffffffffffffffffffffffffffffffffffff168173ffffffffffffffffffffffffffffffffffffffff161415611b06576040517f08c379a0000000000000000000000000000000000000000000000000000000008152600401611afd90613edc565b60405180910390fd5b611b0f8161219e565b50565b611b1a611d54565b6001601360008381526020019081526020016000208190555050565b611b3e611d54565b80600d8190555050565b611b62828260405180602001604052806000815250612525565b5050565b60007f80ac58cd000000000000000000000000000000000000000000000000000000007bffffffffffffffffffffffffffffffffffffffffffffffffffffffff1916827bffffffffffffffffffffffffffffffffffffffffffffffffffffffff19161480611c3157507f5b5e139f000000000000000000000000000000000000000000000000000000007bffffffffffffffffffffffffffffffffffffffffffffffffffffffff1916827bffffffffffffffffffffffffffffffffffffffffffffffffffffffff1916145b80611c415750611c4082612580565b5b9050919050565b611c51816125ea565b611c90576040517f08c379a0000000000000000000000000000000000000000000000000000000008152600401611c8790613cde565b60405180910390fd5b50565b600033905090565b816004600083815260200190815260200160002060006101000a81548173ffffffffffffffffffffffffffffffffffffffff021916908373ffffffffffffffffffffffffffffffffffffffff160217905550808273ffffffffffffffffffffffffffffffffffffffff16611d0e8361116c565b73ffffffffffffffffffffffffffffffffffffffff167f8c5be1e5ebec7d5bd14f71427d1e84f3dd0314c0f7b2291e5b200ac8c7c3b92560405160405180910390a45050565b611d5c611c93565b73ffffffffffffffffffffffffffffffffffffffff16611d7a6113c5565b73ffffffffffffffffffffffffffffffffffffffff1614611dd0576040517f08c379a0000000000000000000000000000000000000000000000000000000008152600401611dc790613f48565b60405180910390fd5b565b600080611dde8361116c565b90508073ffffffffffffffffffffffffffffffffffffffff168473ffffffffffffffffffffffffffffffffffffffff161480611e205750611e1f818561193a565b5b80611e5e57508373ffffffffffffffffffffffffffffffffffffffff16611e4684610da2565b73ffffffffffffffffffffffffffffffffffffffff16145b91505092915050565b8273ffffffffffffffffffffffffffffffffffffffff16611e878261116c565b73ffffffffffffffffffffffffffffffffffffffff1614611edd576040517f08c379a0000000000000000000000000000000000000000000000000000000008152600401611ed490613fda565b60405180910390fd5b600073ffffffffffffffffffffffffffffffffffffffff168273ffffffffffffffffffffffffffffffffffffffff161415611f4d576040517f08c379a0000000000000000000000000000000000000000000000000000000008152600401611f449061406c565b60405180910390fd5b611f5a838383600161262b565b8273ffffffffffffffffffffffffffffffffffffffff16611f7a8261116c565b73ffffffffffffffffffffffffffffffffffffffff1614611fd0576040517f08c379a0000000000000000000000000000000000000000000000000000000008152600401611fc790613fda565b60405180910390fd5b6004600082815260200190815260200160002060006101000a81549073ffffffffffffffffffffffffffffffffffffffff02191690556001600360008573ffffffffffffffffffffffffffffffffffffffff1673ffffffffffffffffffffffffffffffffffffffff168152602001908152602001600020600082825403925050819055506001600360008473ffffffffffffffffffffffffffffffffffffffff1673ffffffffffffffffffffffffffffffffffffffff16815260200190815260200160002060008282540192505081905550816002600083815260200190815260200160002060006101000a81548173ffffffffffffffffffffffffffffffffffffffff021916908373ffffffffffffffffffffffffffffffffffffffff160217905550808273ffffffffffffffffffffffffffffffffffffffff168473ffffffffffffffffffffffffffffffffffffffff167fddf252ad1be2c89b69c2b068fc378daa952ba7f163c4a11628f55a4df523b3ef60405160405180910390a461215c8383836001612693565b505050565b60006002600083815260200190815260200160002060009054906101000a900473ffffffffffffffffffffffffffffffffffffffff169050919050565b6000600a60009054906101000a900473ffffffffffffffffffffffffffffffffffffffff16905081600a60006101000a81548173ffffffffffffffffffffffffffffffffffffffff021916908373ffffffffffffffffffffffffffffffffffffffff1602179055508173ffffffffffffffffffffffffffffffffffffffff168173ffffffffffffffffffffffffffffffffffffffff167f8be0079c531659141344cd1fd0a4f28419497f9722a3daafe3b4186f6b6457e060405160405180910390a35050565b8173ffffffffffffffffffffffffffffffffffffffff168373ffffffffffffffffffffffffffffffffffffffff1614156122d3576040517f08c379a00000000000000000000000000000000000000000000000000000000081526004016122ca906140d8565b60405180910390fd5b80600560008573ffffffffffffffffffffffffffffffffffffffff1673ffffffffffffffffffffffffffffffffffffffff16815260200190815260200160002060008473ffffffffffffffffffffffffffffffffffffffff1673ffffffffffffffffffffffffffffffffffffffff16815260200190815260200160002060006101000a81548160ff0219169083151502179055508173ffffffffffffffffffffffffffffffffffffffff168373ffffffffffffffffffffffffffffffffffffffff167f17307eab39ab6107e8899845ad3d59bd9653f200f220920489ca2b5937696c31836040516123c49190613178565b60405180910390a3505050565b6123dc848484611e67565b6123e884848484612699565b612427576040517f08c379a000000000000000000000000000000000000000000000000000000000815260040161241e9061416a565b60405180910390fd5b50505050565b60606040518060600160405280603381526020016144a260339139905090565b60606000600161245c84612821565b01905060008167ffffffffffffffff81111561247b5761247a61342d565b5b6040519080825280601f01601f1916602001820160405280156124ad5781602001600182028036833780820191505090505b509050600082602001820190505b60011561251a578080600190039150507f3031323334353637383961626364656600000000000000000000000000000000600a86061a8153600a85816125045761250361418a565b5b04945060008514156125155761251a565b6124bb565b819350505050919050565b61252f8383612974565b61253c6000848484612699565b61257b576040517f08c379a00000000000000000000000000000000000000000000000000000000081526004016125729061416a565b60405180910390fd5b505050565b60007f01ffc9a7000000000000000000000000000000000000000000000000000000007bffffffffffffffffffffffffffffffffffffffffffffffffffffffff1916827bffffffffffffffffffffffffffffffffffffffffffffffffffffffff1916149050919050565b60008073ffffffffffffffffffffffffffffffffffffffff1661260c83612161565b73ffffffffffffffffffffffffffffffffffffffff1614159050919050565b61263784848484612b92565b600060136000848152602001908152602001600020541461268d576040517f08c379a000000000000000000000000000000000000000000000000000000000815260040161268490614205565b60405180910390fd5b50505050565b50505050565b60006126ba8473ffffffffffffffffffffffffffffffffffffffff16612cf2565b15612814578373ffffffffffffffffffffffffffffffffffffffff1663150b7a026126e3611c93565b8786866040518563ffffffff1660e01b8152600401612705949392919061427a565b6020604051808303816000875af192505050801561274157506040513d601f19601f8201168201806040525081019061273e91906142db565b60015b6127c4573d8060008114612771576040519150601f19603f3d011682016040523d82523d6000602084013e612776565b606091505b506000815114156127bc576040517f08c379a00000000000000000000000000000000000000000000000000000000081526004016127b39061416a565b60405180910390fd5b805181602001fd5b63150b7a0260e01b7bffffffffffffffffffffffffffffffffffffffffffffffffffffffff1916817bffffffffffffffffffffffffffffffffffffffffffffffffffffffff191614915050612819565b600190505b949350505050565b600080600090507a184f03e93ff9f4daa797ed6e38ed64bf6a1f010000000000000000831061287f577a184f03e93ff9f4daa797ed6e38ed64bf6a1f01000000000000000083816128755761287461418a565b5b0492506040810190505b6d04ee2d6d415b85acef810000000083106128bc576d04ee2d6d415b85acef810000000083816128b2576128b161418a565b5b0492506020810190505b662386f26fc1000083106128eb57662386f26fc1000083816128e1576128e061418a565b5b0492506010810190505b6305f5e1008310612914576305f5e100838161290a5761290961418a565b5b0492506008810190505b612710831061293957612710838161292f5761292e61418a565b5b0492506004810190505b6064831061295c57606483816129525761295161418a565b5b0492506002810190505b600a831061296b576001810190505b80915050919050565b600073ffffffffffffffffffffffffffffffffffffffff168273ffffffffffffffffffffffffffffffffffffffff1614156129e4576040517f08c379a00000000000000000000000000000000000000000000000000000000081526004016129db90614354565b60405180910390fd5b6129ed816125ea565b15612a2d576040517f08c379a0000000000000000000000000000000000000000000000000000000008152600401612a24906143c0565b60405180910390fd5b612a3b60008383600161262b565b612a44816125ea565b15612a84576040517f08c379a0000000000000000000000000000000000000000000000000000000008152600401612a7b906143c0565b60405180910390fd5b6001600360008473ffffffffffffffffffffffffffffffffffffffff1673ffffffffffffffffffffffffffffffffffffffff16815260200190815260200160002060008282540192505081905550816002600083815260200190815260200160002060006101000a81548173ffffffffffffffffffffffffffffffffffffffff021916908373ffffffffffffffffffffffffffffffffffffffff160217905550808273ffffffffffffffffffffffffffffffffffffffff16600073ffffffffffffffffffffffffffffffffffffffff167fddf252ad1be2c89b69c2b068fc378daa952ba7f163c4a11628f55a4df523b3ef60405160405180910390a4612b8e600083836001612693565b5050565b612b9e84848484612d15565b6001811115612be2576040517f08c379a0000000000000000000000000000000000000000000000000000000008152600401612bd990614452565b60405180910390fd5b6000829050600073ffffffffffffffffffffffffffffffffffffffff168573ffffffffffffffffffffffffffffffffffffffff161415612c2a57612c2581612d1b565b612c69565b8373ffffffffffffffffffffffffffffffffffffffff168573ffffffffffffffffffffffffffffffffffffffff1614612c6857612c678582612d64565b5b5b600073ffffffffffffffffffffffffffffffffffffffff168473ffffffffffffffffffffffffffffffffffffffff161415612cac57612ca781612ed1565b612ceb565b8473ffffffffffffffffffffffffffffffffffffffff168473ffffffffffffffffffffffffffffffffffffffff1614612cea57612ce98482612fa2565b5b5b5050505050565b6000808273ffffffffffffffffffffffffffffffffffffffff163b119050919050565b50505050565b6008805490506009600083815260200190815260200160002081905550600881908060018154018082558091505060019003906000526020600020016000909190919091505550565b60006001612d71846112c5565b612d7b9190613dd6565b9050600060076000848152602001908152602001600020549050818114612e60576000600660008673ffffffffffffffffffffffffffffffffffffffff1673ffffffffffffffffffffffffffffffffffffffff168152602001908152602001600020600084815260200190815260200160002054905080600660008773ffffffffffffffffffffffffffffffffffffffff1673ffffffffffffffffffffffffffffffffffffffff168152602001908152602001600020600084815260200190815260200160002081905550816007600083815260200190815260200160002081905550505b6007600084815260200190815260200160002060009055600660008573ffffffffffffffffffffffffffffffffffffffff1673ffffffffffffffffffffffffffffffffffffffff16815260200190815260200160002060008381526020019081526020016000206000905550505050565b60006001600880549050612ee59190613dd6565b9050600060096000848152602001908152602001600020549050600060088381548110612f1557612f14613c63565b5b906000526020600020015490508060088381548110612f3757612f36613c63565b5b906000526020600020018190555081600960008381526020019081526020016000208190555060096000858152602001908152602001600020600090556008805480612f8657612f85614472565b5b6001900381819060005260206000200160009055905550505050565b6000612fad836112c5565b905081600660008573ffffffffffffffffffffffffffffffffffffffff1673ffffffffffffffffffffffffffffffffffffffff168152602001908152602001600020600083815260200190815260200160002081905550806007600084815260200190815260200160002081905550505050565b82805461302d90613957565b90600052602060002090601f01602090048101928261304f5760008555613096565b82601f1061306857805160ff1916838001178555613096565b82800160010185558215613096579182015b8281111561309557825182559160200191906001019061307a565b5b5090506130a391906130a7565b5090565b5b808211156130c05760008160009055506001016130a8565b5090565b6000604051905090565b600080fd5b600080fd5b60007fffffffff0000000000000000000000000000000000000000000000000000000082169050919050565b61310d816130d8565b811461311857600080fd5b50565b60008135905061312a81613104565b92915050565b600060208284031215613146576131456130ce565b5b60006131548482850161311b565b91505092915050565b60008115159050919050565b6131728161315d565b82525050565b600060208201905061318d6000830184613169565b92915050565b600081519050919050565b600082825260208201905092915050565b60005b838110156131cd5780820151818401526020810190506131b2565b838111156131dc576000848401525b50505050565b6000601f19601f8301169050919050565b60006131fe82613193565b613208818561319e565b93506132188185602086016131af565b613221816131e2565b840191505092915050565b6000602082019050818103600083015261324681846131f3565b905092915050565b6000819050919050565b6132618161324e565b811461326c57600080fd5b50565b60008135905061327e81613258565b92915050565b60006020828403121561329a576132996130ce565b5b60006132a88482850161326f565b91505092915050565b600073ffffffffffffffffffffffffffffffffffffffff82169050919050565b60006132dc826132b1565b9050919050565b6132ec816132d1565b82525050565b600060208201905061330760008301846132e3565b92915050565b613316816132d1565b811461332157600080fd5b50565b6000813590506133338161330d565b92915050565b600080604083850312156133505761334f6130ce565b5b600061335e85828601613324565b925050602061336f8582860161326f565b9150509250929050565b6133828161324e565b82525050565b600060208201905061339d6000830184613379565b92915050565b6000806000606084860312156133bc576133bb6130ce565b5b60006133ca86828701613324565b93505060206133db86828701613324565b92505060406133ec8682870161326f565b9150509250925092565b60006020828403121561340c5761340b6130ce565b5b600061341a84828501613324565b91505092915050565b600080fd5b600080fd5b7f4e487b7100000000000000000000000000000000000000000000000000000000600052604160045260246000fd5b613465826131e2565b810181811067ffffffffffffffff821117156134845761348361342d565b5b80604052505050565b60006134976130c4565b90506134a3828261345c565b919050565b600067ffffffffffffffff8211156134c3576134c261342d565b5b6134cc826131e2565b9050602081019050919050565b82818337600083830152505050565b60006134fb6134f6846134a8565b61348d565b90508281526020810184848401111561351757613516613428565b5b6135228482856134d9565b509392505050565b600082601f83011261353f5761353e613423565b5b813561354f8482602086016134e8565b91505092915050565b6000806040838503121561356f5761356e6130ce565b5b600061357d8582860161326f565b925050602083013567ffffffffffffffff81111561359e5761359d6130d3565b5b6135aa8582860161352a565b9150509250929050565b6135bd8161315d565b81146135c857600080fd5b50565b6000813590506135da816135b4565b92915050565b600080604083850312156135f7576135f66130ce565b5b600061360585828601613324565b9250506020613616858286016135cb565b9150509250929050565b600067ffffffffffffffff82111561363b5761363a61342d565b5b613644826131e2565b9050602081019050919050565b600061366461365f84613620565b61348d565b9050828152602081018484840111156136805761367f613428565b5b61368b8482856134d9565b509392505050565b600082601f8301126136a8576136a7613423565b5b81356136b8848260208601613651565b91505092915050565b600080600080608085870312156136db576136da6130ce565b5b60006136e987828801613324565b94505060206136fa87828801613324565b935050604061370b8782880161326f565b925050606085013567ffffffffffffffff81111561372c5761372b6130d3565b5b61373887828801613693565b91505092959194509250565b600080fd5b600080fd5b60008083601f84011261376457613763613423565b5b8235905067ffffffffffffffff81111561378157613780613744565b5b60208301915083602082028301111561379d5761379c613749565b5b9250929050565b600080602083850312156137bb576137ba6130ce565b5b600083013567ffffffffffffffff8111156137d9576137d86130d3565b5b6137e58582860161374e565b92509250509250929050565b60008060408385031215613808576138076130ce565b5b600061381685828601613324565b925050602061382785828601613324565b9150509250929050565b7f4e487b7100000000000000000000000000000000000000000000000000000000600052601160045260246000fd5b600061386b8261324e565b91506138768361324e565b9250827fffffffffffffffffffffffffffffffffffffffffffffffffffffffffffffffff038211156138ab576138aa613831565b5b828201905092915050565b60006040820190506138cb6000830185613379565b6138d86020830184613379565b9392505050565b60006138ea8261324e565b91507fffffffffffffffffffffffffffffffffffffffffffffffffffffffffffffffff82141561391d5761391c613831565b5b600182019050919050565b7f4e487b7100000000000000000000000000000000000000000000000000000000600052602260045260246000fd5b6000600282049050600182168061396f57607f821691505b6020821081141561398357613982613928565b5b50919050565b7f4552433732313a20617070726f76616c20746f2063757272656e74206f776e6560008201527f7200000000000000000000000000000000000000000000000000000000000000602082015250565b60006139e560218361319e565b91506139f082613989565b604082019050919050565b60006020820190508181036000830152613a14816139d8565b9050919050565b7f4552433732313a20617070726f76652063616c6c6572206973206e6f7420746f60008201527f6b656e206f776e6572206f7220617070726f76656420666f7220616c6c000000602082015250565b6000613a77603d8361319e565b9150613a8282613a1b565b604082019050919050565b60006020820190508181036000830152613aa681613a6a565b9050919050565b7f4552433732313a2063616c6c6572206973206e6f7420746f6b656e206f776e6560008201527f72206f7220617070726f76656400000000000000000000000000000000000000602082015250565b6000613b09602d8361319e565b9150613b1482613aad565b604082019050919050565b60006020820190508181036000830152613b3881613afc565b9050919050565b7f455243373231456e756d657261626c653a206f776e657220696e646578206f7560008201527f74206f6620626f756e6473000000000000000000000000000000000000000000602082015250565b6000613b9b602b8361319e565b9150613ba682613b3f565b604082019050919050565b60006020820190508181036000830152613bca81613b8e565b9050919050565b7f455243373231456e756d657261626c653a20676c6f62616c20696e646578206f60008201527f7574206f6620626f756e64730000000000000000000000000000000000000000602082015250565b6000613c2d602c8361319e565b9150613c3882613bd1565b604082019050919050565b60006020820190508181036000830152613c5c81613c20565b9050919050565b7f4e487b7100000000000000000000000000000000000000000000000000000000600052603260045260246000fd5b7f4552433732313a20696e76616c696420746f6b656e2049440000000000000000600082015250565b6000613cc860188361319e565b9150613cd382613c92565b602082019050919050565b60006020820190508181036000830152613cf781613cbb565b9050919050565b600081905092915050565b50565b6000613d19600083613cfe565b9150613d2482613d09565b600082019050919050565b6000613d3a82613d0c565b9150819050919050565b7f4552433732313a2061646472657373207a65726f206973206e6f74206120766160008201527f6c6964206f776e65720000000000000000000000000000000000000000000000602082015250565b6000613da060298361319e565b9150613dab82613d44565b604082019050919050565b60006020820190508181036000830152613dcf81613d93565b9050919050565b6000613de18261324e565b9150613dec8361324e565b925082821015613dff57613dfe613831565b5b828203905092915050565b600081905092915050565b6000613e2082613193565b613e2a8185613e0a565b9350613e3a8185602086016131af565b80840191505092915050565b6000613e528285613e15565b9150613e5e8284613e15565b91508190509392505050565b7f4f776e61626c653a206e6577206f776e657220697320746865207a65726f206160008201527f6464726573730000000000000000000000000000000000000000000000000000602082015250565b6000613ec660268361319e565b9150613ed182613e6a565b604082019050919050565b60006020820190508181036000830152613ef581613eb9565b9050919050565b7f4f776e61626c653a2063616c6c6572206973206e6f7420746865206f776e6572600082015250565b6000613f3260208361319e565b9150613f3d82613efc565b602082019050919050565b60006020820190508181036000830152613f6181613f25565b9050919050565b7f4552433732313a207472616e736665722066726f6d20696e636f72726563742060008201527f6f776e6572000000000000000000000000000000000000000000000000000000602082015250565b6000613fc460258361319e565b9150613fcf82613f68565b604082019050919050565b60006020820190508181036000830152613ff381613fb7565b9050919050565b7f4552433732313a207472616e7366657220746f20746865207a65726f2061646460008201527f7265737300000000000000000000000000000000000000000000000000000000602082015250565b600061405660248361319e565b915061406182613ffa565b604082019050919050565b6000602082019050818103600083015261408581614049565b9050919050565b7f4552433732313a20617070726f766520746f2063616c6c657200000000000000600082015250565b60006140c260198361319e565b91506140cd8261408c565b602082019050919050565b600060208201905081810360008301526140f1816140b5565b9050919050565b7f4552433732313a207472616e7366657220746f206e6f6e20455243373231526560008201527f63656976657220696d706c656d656e7465720000000000000000000000000000602082015250565b600061415460328361319e565b915061415f826140f8565b604082019050919050565b6000602082019050818103600083015261418381614147565b9050919050565b7f4e487b7100000000000000000000000000000000000000000000000000000000600052601260045260246000fd5b7f697420697320626c6f636b000000000000000000000000000000000000000000600082015250565b60006141ef600b8361319e565b91506141fa826141b9565b602082019050919050565b6000602082019050818103600083015261421e816141e2565b9050919050565b600081519050919050565b600082825260208201905092915050565b600061424c82614225565b6142568185614230565b93506142668185602086016131af565b61426f816131e2565b840191505092915050565b600060808201905061428f60008301876132e3565b61429c60208301866132e3565b6142a96040830185613379565b81810360608301526142bb8184614241565b905095945050505050565b6000815190506142d581613104565b92915050565b6000602082840312156142f1576142f06130ce565b5b60006142ff848285016142c6565b91505092915050565b7f4552433732313a206d696e7420746f20746865207a65726f2061646472657373600082015250565b600061433e60208361319e565b915061434982614308565b602082019050919050565b6000602082019050818103600083015261436d81614331565b9050919050565b7f4552433732313a20746f6b656e20616c7265616479206d696e74656400000000600082015250565b60006143aa601c8361319e565b91506143b582614374565b602082019050919050565b600060208201905081810360008301526143d98161439d565b9050919050565b7f455243373231456e756d657261626c653a20636f6e736563757469766520747260008201527f616e7366657273206e6f7420737570706f727465640000000000000000000000602082015250565b600061443c60358361319e565b9150614447826143e0565b604082019050919050565b6000602082019050818103600083015261446b8161442f565b9050919050565b7f4e487b7100000000000000000000000000000000000000000000000000000000600052603160045260246000fdfe68747470733a2f2f6170692e6d6574616178656c2e6f6e6c696e652f6170692f76312f646174612f747261626269747733622fa264697066735822122056e79eb61090a3920dd02f8859f45965ad89155baaa90a1547049312601d7ab864736f6c634300080b0033",
  "linkReferences": {},
  "deployedLinkReferences": {}
}